:100000000C9473020C949D020C949D020C949D021E
:100010000C949D020C949D020C949D020C949D02E4
:100020000C949D020C949D020C94FE0E0C948D0D6C
:100030000C949D020C949D020C949D020C949D02C4
:100040000C949D020C949D020C949D020C949D02B4
:100050000C949D020C949D020C949D020C94D2066B
:100060000C949D020C949D020C949D020C949D0294
:100070000C949D020C949D020C949D020C949D0284
:100080000C949D020C949D020C949D020C949D0274
:100090000C949D020C949D02EC07F107F6070008F2
:1000A0000A08420814081C0824082E0838086308A7
:1000B0006608550859085F0881086A086E087408C0
:1000C00078087C083634204B4279746573202838D0
:1000D0002062616E6B73206F6620384B42797465C5
:1000E0007320656163682900313238204B4279748E
:1000F0006573202831362042616E6B7329003332DC
:10010000204B42797465732028342062616E6B73D2
:10011000206F6620384B427974657320656163688F
:10012000290038204B6279746573202831204261A0
:100130006E6B290032204B42797465732028312080
:1001400042616E6B29004E6F6E6500312E354D4257
:10015000797465202839362062616E6B732900310D
:100160002E324D42797465202838302062616E6BE2
:10017000732900312E314D427974652028373220A1
:1001800062616E6B732900384D42797465202835A1
:1001900031322062616E6B732900344D427974658F
:1001A00020283235362062616E6B732900324D4251
:1001B00079746520283132382062616E6B73292092
:1001C0002D206F6E6C79203132352062616E6B7339
:1001D0002075736564206279204D42433100314DB2
:1001E00042797465202836342062616E6B73292051
:1001F0002D206F6E6C792036332062616E6B732018
:1002000075736564206279204D4243310035313287
:100210004B42797465202833322062616E6B7329FA
:10022000003235364B4279746520283136206261C0
:100230006E6B7329003132384B427974652028384F
:100240002062616E6B73290036344B4279746520ED
:1002500028342062616E6B73290033324B4279740B
:100260006520286E6F20524F4D2062616E6B696E63
:10027000672900487543312B52414D2B424154545C
:1002800045525900487543330042414E444149208C
:1002900054414D413500504F434B45542043414D4F
:1002A000455241004D4243352B52554D424C452B52
:1002B00052414D2B42415454455259004D42433511
:1002C0002B52554D424C452B52414D004D4243352A
:1002D0002B52554D424C45004D4243352B52414D1A
:1002E0002B42415454455259004D4243352B524103
:1002F0004D004D424335004D4243342B52414D2B6E
:1003000042415454455259004D4243342B52414DC1
:10031000004D424334004D4243332B52414D2B425A
:10032000415454455259004D4243332B52414D00E4
:100330004D424333004D4243332B54494D45522BDC
:1003400052414D2B42415454455259004D42433382
:100350002B54494D45522B42415454455259004D5E
:100360004D4D30312B52414D2B4241545445525941
:10037000004D4D4D30312B52414D004D4D4D3031E2
:1003800000524F4D2B52414D2B424154544552592E
:1003900000524F4D2B52414D004D4243322B4241B2
:1003A0005454455259004D424332004D4243312B83
:1003B00052414D2B42415454455259004D42433114
:1003C0002B52414D004D42433100524F4D204F4E74
:1003D0004C59000000000000000B0A09000000005A
:1003E00000000000000000000000070304050000FA
:1003F00002080000000000000000000000000000F3
:10040000000000010201020408102040808040200A
:1004100010080402014001020408102040808008F6
:10042000010204081020408004010204081020404A
:1004300080102005050303030303030303060606D8
:10044000060606060605020202020202020205056F
:100450000404040404040404050101010101010170
:1004600001050500002200250028002B002E003188
:100470000000002100240027002A002D0030000980
:1004800004000001020200000524001001052401FF
:10049000010104240206052406000107058103105A
:1004A000004009040100020A0000000705020240A2
:1004B0000000070583024000001201000202000054
:1004C00010D01657050001010203014D61747461DB
:1004D000697254656368004D542D44422D553600B1
:1004E00004030904AC0911241FBECFEFD0E2DEBF24
:1004F000CDBF10E1A0E0B1E0EAE2F1E200E00BBF25
:1005000002C007900D92A231B107D9F720E1A2E114
:10051000B0E101C01D92AA39B207E1F712E0C3E7CA
:10052000D2E004C02197FE010E947610C237D107A5
:10053000C9F70E94930F0C9493100C94000061155E
:10054000710579F0FB0101900020E9F73197AF01C7
:10055000461B570BDC01ED91FC910280F381E02DED
:10056000099480E090E008950E941C076093201099
:1005700070932110809322109093231062E083E106
:100580000E94820862E087E10E94820861E088E1BF
:100590000E94820861E089E10E94820861E08AE1AC
:1005A0000E94820861E088E10E94BE0861E089E162
:1005B0000E94BE0861E08AE10E94BE0861E080E01E
:1005C0000E94820861E081E00E94820861E082E18D
:1005D0000E94820861E08BE10E94820861E08FE264
:1005E0000E94820861E080E00E94BE0861E081E034
:1005F0000E94BE0861E08BE10E94BE0861E082E1DA
:100600000E94BE0860E08AE10E94BE0840E052EC11
:1006100061E070E08DE290E10E94A60968EE73E06F
:1006200080E090E00E944D0769E57FE08DE290E177
:100630000E94040A18B88FEF87B91BB88AB911BA9B
:1006400010BA0895719A709A769A779A08959BB91C
:1006500088B971980000000000008FB1719A089568
:100660002FEF20BB9BB988B961BB70980000709ACE
:100670008FB110BA0895292F30E09FEF90BB3E7FD5
:100680002BB988B961BB75980000759A000000000D
:10069000000064E170E080E090E00E944D07089562
:1006A00061E088E10E94BE0861E08AE10E94BE0824
:1006B0006FE770E089E10E94C50710921310109255
:1006C00012106AEA85E595E50E943B0365E58AEA32
:1006D0009AE20E943B0360E885E595E50E943B03B2
:1006E0006AEA85E595E50E943B0365E58AEA9AE2B8
:1006F0000E943B0360E185E595E50E943B0360EDC8
:1007000077E080E090E00E944D0761E08AE10E947E
:10071000BE0861E089E10E94BE086FE770E088E1F1
:100720000C94C507811103C06AEC73E072C081307C
:1007300019F465EC73E06DC0823019F46CEB73E072
:1007400068C0833019F46BEA73E063C0853019F434
:1007500066EA73E05EC0863019F469E973E059C057
:10076000883019F461E973E054C0893019F461E804
:1007700073E04FC08B3019F46BE773E04AC08C30E4
:1007800019F461E773E045C08D3019F46FE573E04B
:1007900040C08F3019F46CE473E03BC0803119F431
:1007A00065E373E036C0813119F460E373E031C072
:1007B000823119F467E273E02CC0833119F466E1E9
:1007C00073E027C0853119F461E173E022C08631FE
:1007D00019F468E073E01DC0873119F467EF72E027
:1007E00018C0893119F462EF72E013C08A3119F42C
:1007F00069EE72E00EC08B3119F468ED72E009C049
:100800008C3119F46CEC72E004C08D3139F46CEB6E
:1008100072E08DE290E10E94F20908958E3119F4A0
:1008200064EA72E013C08C3F19F466E972E00EC00E
:100830008D3F19F469E872E009C08E3F19F464E84D
:1008400072E004C08F3F31F463E772E08DE290E123
:100850000C94F2090895811103C06AE572E01DC08D
:10086000813019F468E472E018C0823019F465E34D
:1008700072E013C0833019F461E272E00EC084307C
:1008800019F46DE072E009C0853019F46EED71E085
:1008900004C0863039F46DEA71E08DE290E10E9487
:1008A000F2090895873019F46AE971E013C08830BD
:1008B00019F467E871E00EC0823519F463E771E05E
:1008C00009C0833519F46FE571E004C0843531F453
:1008D0006BE471E08DE290E10C94F20908958111CE
:1008E00003C066E471E004C0813039F464E371E070
:1008F0008DE290E10E94F2090895823019F462E2DB
:1009000071E00EC0833019F46EEF70E009C08430DE
:1009100019F468EE70E004C0853031F464EC70E0E6
:100920008DE290E10C94F2090895CF93DF93C82FE4
:1009300087E491E00E942703282F30E030931F10B6
:1009400020931E1088E491E00E942703282F30E0B6
:1009500030931D1020931C1089E491E00E9427031E
:10096000282F30E0309319102093181042E050E007
:1009700050931B1040931A1060911C1070911D1021
:100980006115710549F002C0440F551F6A95E2F7E1
:1009900050931B1040931A101092171010921610BB
:1009A00040911E1050911F104630510531F481E0E6
:1009B00090E090931710809316102230310539F48F
:1009C00081E090E0909317108093161019C02330A7
:1009D000310519F484E090E00BC02430310519F49E
:1009E00080E190E005C02530310551F488E090E0C9
:1009F00090931710809316104630510599F403C058
:100A00004630510531F48FEF91EA909315108093A1
:100A100014102130310519F48FEF97EA05C0223008
:100A2000310530F08FEF9FEB9093151080931410E9
:100A3000C1116DC06CE67FE08DE290E10E94E50996
:100A4000C4E3D1E0CE010E942703682F8DE290E13C
:100A50000E94E7092196CF3381E0D80799F78DE20C
:100A600090E10E94EE0969E77FE08DE290E10E944B
:100A7000E50960911E1070911F1040E150E08DE279
:100A800090E10E94D10A6AE87FE08DE290E10E9445
:100A9000E50980911E100E9492036EE87FE08DE2CE
:100AA00090E10E94E50960911C1070911D1040E1D9
:100AB00050E08DE290E10E94D10A6AE87FE08DE289
:100AC00090E10E94E50980911C100E942B0469E9C5
:100AD0007FE08DE290E10E94E5096091181070912D
:100AE000191040E150E08DE290E10E94D10A6AE8DD
:100AF0007FE08DE290E10E94E509809118100E944C
:100B00006F048DE290E1DF91CF910C94EE09DF91BB
:100B1000CF9108956F927F929F92AF92BF92CF92A2
:100B2000DF92EF92FF920F931F93CF93DF93CDB796
:100B3000DEB7C054D1090FB6F894DEBF0FBECDBFEB
:100B400064EA7FE08DE290E10E949F028DE290E1F5
:100B50000E9415090E94220301E010E0E12CF12C13
:100B6000CE0101966C0120E4922E980E80911A100D
:100B700090911B100817190708F044C080911E10AF
:100B800090911F10059720F0602F80E091E213C034
:100B900060E080E090E60E943003B80195E0769531
:100BA00067959A95E1F780E090E40E943003602F0A
:100BB0006F7180E090E20E94300302301105C0F0B6
:100BC000E12C80E4F82E14C0C501860D971D0E940B
:100BD0002703F50181935F019E12F6CF40E450E0B8
:100BE000B6018DE290E10E943509F0E4EF0EF11CB0
:100BF000F7FC05C0560137016C187D08E5CF0F5F83
:100C00001F4FB4CF6EEA7FE08DE290E10E949F0219
:100C1000C05CDF4F0FB6F894DEBF0FBECDBFDF91D3
:100C2000CF911F910F91FF90EF90DF90CF90BF90E9
:100C3000AF909F907F906F900895CF92DF92FF9238
:100C40000F931F93CF93DF9384E6C82ED12C8DE2B0
:100C500090E10E941809181619060CF09BC08DE24D
:100C600090E10E942809813689F460E089E10E94C0
:100C7000BE0861E08AE10E94BE0880E00E949504FF
:100C800061E089E10E94BE0860E080C0823731F4F3
:100C900081E00E9495040E948A05D9CF8737B9F672
:100CA00066EB7FE08DE290E10E94040A0E9450030F
:100CB0006FE770E08AE10E94C5076FE770E089E1A5
:100CC0000E94C50761E088E10E94BE0866EC7FE0F3
:100CD0008DE290E10E94040A00E011E0C0E0D0E063
:100CE000F8016081CE010E943B03CE010E942703E0
:100CF000F82EF80180818F1531F14AE050E0BE01F5
:100D00008DE290E10E94B60A66E77FE08DE290E115
:100D10000E94E5094AE050E0F80160818DE290E12F
:100D20000E94CA0A65ED7FE08DE290E10E94E5092C
:100D30004AE050E06F2D8DE290E10E94CA0A8DE2F8
:100D400090E10E94EE09CE01B6010E944010892B6D
:100D500029F46EE28DE290E10E94E70921960F5F8F
:100D60001F4FCF32FEE0DF0709F0BACF6AED7FE018
:100D70008DE290E10E94040A6FE770E088E10E9432
:100D8000C50761E089E10E94BE0861E08AE10E9436
:100D9000BE085DCFDF91CF911F910F91FF90DF9043
:100DA000CF9008951F920F920FB60F9211242F9398
:100DB0003F938F939F93AF93BF9380912510909112
:100DC0002610A0912710B09128103091241023E014
:100DD000230F2D3720F40196A11DB11D05C026E873
:100DE000230F0296A11DB11D20932410809325107E
:100DF00090932610A0932710B0932810809129106B
:100E000090912A10A0912B10B0912C100196A11D49
:100E1000B11D8093291090932A10A0932B10B093AA
:100E20002C10BF91AF919F918F913F912F910F9077
:100E30000FBE0F901F9018952FB7F8946091251052
:100E40007091261080912710909128102FBF08953F
:100E50003FB7F8948091291090912A10A0912B10FF
:100E6000B0912C1026B5A89B05C02F3F19F0019614
:100E7000A11DB11D3FBFBA2FA92F982F8827820F20
:100E8000911DA11DB11DBC01CD0142E0660F771F70
:100E9000881F991F4A95D1F70895CF92DF92EF925C
:100EA000FF92CF93DF936B017C010E942807EB0137
:100EB000C114D104E104F10489F00E94A60F0E943C
:100EC00028076C1B7D0B683E734090F381E0C81AC5
:100ED000D108E108F108C851DC4FEACFDF91CF918A
:100EE000FF90EF90DF90CF90089520E030E080E811
:100EF0000FB6F89480936100209361000FBE789440
:100F000084B5826084BD84B5816084BD85B582600E
:100F100085BD85B5816085BDEEE6F0E080818160AC
:100F20008083E1E8F0E010828081826080838081AC
:100F300081608083E0E8F0E0808181608083E1EB84
:100F4000F0E0808184608083E0EBF0E0808181606C
:100F50008083E1E9F0E0808182608083808181602C
:100F60008083E0E9F0E0808181608083EAE7F0E05F
:100F700080818460808380818260808380818160C1
:100F8000808380818068808308951F93CF93DF934F
:100F9000182FEB0161E00E948208209711F460E0B5
:100FA00004C0CF3FD10539F461E0812FDF91CF91AB
:100FB0001F910C94BE08E12FF0E0ED52FC4FE4913C
:100FC0004E2F50E0FA013197EB30F10508F05AC08E
:100FD000E45BFF4F0C94761084B5806884BDC7BD78
:100FE00056C084B5806284BDC8BD51C08091800068
:100FF000806880938000D0938900C093880047C0A8
:1010000080918000806280938000D0938B00C09399
:101010008A003DC080918000886080938000D093DA
:101020008D00C0938C0033C08091B00080688093A5
:10103000B000C093B3002BC08091B0008062809359
:10104000B000C093B40023C080919000806880936A
:101050009000D0939900C093980019C0809190009F
:10106000806280939000D0939B00C0939A000FC041
:1010700080919000886080939000D0939D00C093F1
:101080009C0005C0C038D1050CF08ECF88CFDF9111
:10109000CF911F91089590E0FC013197EB30F1055D
:1010A00080F5E95AFF4F0C947610809180008F777D
:1010B00003C0809180008F7D80938000089580918F
:1010C0008000877FF9CF84B58F7702C084B58F7D8C
:1010D00084BD08958091B0008F7703C08091B000E7
:1010E0008F7D8093B0000895809190008F7707C026
:1010F000809190008F7D03C080919000877F8093C6
:1011000090000895CF93DF9390E0FC01ED5FFB4FDB
:101110002491FC01ED5CFB4F8491882361F190E008
:10112000880F991FFC01EF58FB4FC591D491FC012A
:10113000ED59FB4FA591B491611109C09FB7F89487
:101140008881209582238883EC912E230BC0623006
:1011500061F49FB7F8943881822F80958323888328
:10116000EC912E2B2C939FBF06C08FB7F894E8818B
:101170002E2B28838FBFDF91CF9108951F93CF939C
:10118000DF93282F30E0F901ED52FC4F8491F901F3
:10119000ED5FFB4FD491F901ED5CFB4FC491CC2383
:1011A000C9F0162F81110E944B08EC2FF0E0EE0FD2
:1011B000FF1FED59FB4FA591B4918FB7F894111112
:1011C00005C09C91ED2FE095E92302C0EC91ED2B39
:1011D000EC938FBFDF91CF911F910895CF93DF9351
:1011E0001F92CDB7DEB76983DC01ED91FC910280DF
:1011F000F381E02D41E050E0BE016F5F7F4F099524
:101200000F90DF91CF910895CF93DF93EC018C8500
:101210009D8597FF05C082E00E94590C9D878C87B1
:101220008C859D85DF91CF91089583E00C94E50E28
:10123000FC018485958597FD06C082E00E94030C21
:1012400090E00196089582E00E94030C90E00895DA
:10125000FC018485958597FD05C02FEF3FEF35870D
:101260002487089582E00C94590CCF93DF93EC010E
:1012700080913A0F882331F083E00E94970C181672
:10128000190634F081E090E09B838A8380E090E04F
:10129000DF91CF910895FC0190819E5F90834AE396
:1012A00050E06FE774E080E80C944C0DFC01818104
:1012B0009081913A59F4813209F042C047E050E000
:1012C00063E37FE080E00E944C0D3EC09132C1F5A7
:1012D000833291F49381892F90E0982F882722817F
:1012E000822BA0E0B0E080932F0F9093300FA0935B
:1012F000310FB093320F28C0803239F467E070E0CC
:1013000083E39FE00E94730D05C08232E9F482817D
:1013100080933A0F8091330F9091340FA091350F45
:10132000B091360F803B9440A105B10559F48091EE
:101330003A0F80FD07C08AEF90E00E94EE0A04C0D9
:1013400080E008950E94F30A81E008952FEF3FEFB7
:10135000FC01358724870895EDE2F0E113821282C3
:1013600088EE93E0A0E0B0E084839583A683B78302
:1013700085EF9FE0918380838FEF9FEF9587848730
:101380000895EF92FF920F931F93CF93DF938C01F9
:101390007B01C0E0D0E0F701EC0FFD1F64916623F4
:1013A00061F0D801ED91FC910190F081E02DC80130
:1013B0000995892B11F02196EECFCE01DF91CF91C7
:1013C0001F910F91FF90EF9008950C949F02DC0104
:1013D000ED91FC910190F081E02D099461E070E1C4
:1013E0000C949F020F931F93CF93DF93EC010E9405
:1013F000C1098C01CE010E94EE09800F911FDF917F
:10140000CF911F910F9108950F931F93CF93DF9367
:10141000EC010E949F028C01CE010E94EE09800F18
:10142000911FDF91CF911F910F9108958F929F92FD
:10143000AF92BF92CF92DF92EF92FF920F931F93E2
:10144000CF93DF93CDB7DEB7A1970FB6F894DEBF89
:101450000FBECDBF6C01142FE52FCB01022F19A2B7
:10146000223008F40AE07E0121E2E20EF11C802E17
:10147000912CA12CB12C612F7E2FA50194010E94EB
:101480005410029F1019112481E0E81AF1081A3053
:1014900014F4105D01C0195CF7011083122FE32FC3
:1014A000CA01232B242B252B31F7B701C6010E943B
:1014B0009F02A1960FB6F894DEBF0FBECDBFDF919D
:1014C000CF911F910F91FF90EF90DF90CF90BF9041
:1014D000AF909F908F900895CF92DF92EF92FF92FE
:1014E0000F931F93CF93DF93EC016A017B012115CA
:1014F000310579F4E881F9810190F081E02D642FC4
:10150000DF91CF911F910F91FF90EF90DF90CF90DF
:1015100009942A303105E9F477FF1AC06DE20E9480
:10152000E7098C0144275527BA014C195D096E095A
:101530007F092AE0CE010E94160A800F911FDF91D9
:10154000CF911F910F91FF90EF90DF90CF90089572
:101550002AE0B701A601CE01DF91CF911F910F9133
:10156000FF90EF90DF90CF900C94160A9A01AB0198
:10157000770F660B770B0C946C0A2115310541F43B
:10158000DC01ED91FC910190F081E02D642F099434
:101590000C94160A9A01462F50E060E070E00C941B
:1015A000BD0A9A01AB0160E070E00C94BD0A809125
:1015B000E00081608093E000F8949AE088E10FB643
:1015C000F894A895809360000FBE9093600087E721
:1015D00097E79093810280938002FFCF90933C0F16
:1015E00080933B0F08958FEF9FEF90933C0F809374
:1015F0003B0F089580913B0F90913C0F8F3F2FEF51
:10160000920749F0019790933C0F80933B0F892BF1
:1016100011F40E94D70A0895615030F02091F10032
:10162000FC0120830196F8CF709884E680938C109B
:101630000895482F50E0FA01EE0FFF1FEC5BF04FCA
:10164000608171816115710511F460E470E020E042
:101650006930710520F0769567952F5FF9CFFA0113
:10166000E35CF04F9081911101C092E08093E9001A
:1016700081E08093EB00FA01EE5AF04F8081809375
:10168000EC0080E1289F900111242260915034E009
:10169000939FC0011124822B8093ED000895409107
:1016A00080105091811020917E1030917F10421750
:1016B0005307ECF49091E8009570E1F39091E80005
:1016C00092FD20C08093F100809180109091811054
:1016D0009C012F5F3F4F8091440F9091450F0197E0
:1016E00082239323892B19F48EEF8093E800809155
:1016F00080109091811001969093811080938010BA
:1017000081E0089580E00895CF92DF92EF92FF92FA
:101710000F931F93CF93DF931F92CDB7DEB7182F90
:10172000062FE42E862F880F8E5F99830E944F0B21
:1017300083E00E944F0BF12EC12E9981D92E8C2D62
:101740008F19801798F4F601E7FE02C0849101C05A
:1017500080810E944F0B182F80E00E944F0B812345
:10176000FFEFCF1ADF0A8111EACF01C081E00F90AD
:10177000DF91CF911F910F91FF90EF90DF90CF906D
:1017800008958091D70081608093D70080EA80938C
:10179000D80089B5837E846189BD89B5826089BDA1
:1017A00009B400FEFDCF61E070E080E090E00E94AF
:1017B0004D078091D8008F7C80618093D800809104
:1017C000E000887F8093E0000895CF93DF931F921D
:1017D000CDB7DEB71982CE0101960E944B090E9457
:1017E0002C10BE016F5F7F4F0E94A70F89810F9061
:1017F000DF91CF9108952FB7FC012083F894677093
:101800006093E9000895CF93DF931F92CDB7DEB7C1
:10181000682FCE0101960E94FB0B8091F200998106
:101820009FBF0F90DF91CF910895EF92FF920F939A
:101830001F93CF93DF931F92CDB7DEB790918B109C
:10184000992311F057FF03C08FEF9FEF2AC08A0141
:101850007B01682FCE0101960E94FB0B8091F20064
:1018600090E0A801801791070CF4AC01842FF701D8
:1018700094E6815038F0709890938C102091F1008C
:101880002193F7CF4115510521F08091F200882373
:1018900021F089818FBFCA0104C08BE68093E800E4
:1018A000F8CF0F90DF91CF911F910F91FF90EF90A4
:1018B0000895CF93DF931F92CDB7DEB741E050E09C
:1018C000BE016F5F7F4F0E94150C019719F489814B
:1018D00090E002C08FEF9FEF0F90DF91CF910895BE
:1018E0001F93CF93DF931F92CDB7DEB7182F682FCA
:1018F000CE0101960E94FB0B8091E80085FF0EC08F
:101900002091F2001770E12FF0E0EE0FFF1FEC5B6B
:10191000F04F80819181821B910902C080E090E0AC
:1019200029812FBF0F90DF91CF911F9108953F9292
:101930004F925F926F927F928F929F92AF92BF92DF
:10194000CF92DF92EF92FF920F931F93CF93DF938B
:101950001F92CDB7DEB7382E6B015A0180918B10E4
:10196000882399F07A018AEF782E232D2072522E47
:10197000832D877090E0FC01EE57FF4E4F019AE3F4
:10198000692EF32DF0744F2E12C08FEF9FEF66C0BB
:10199000832D0E94700C8C01892B69F47A94772036
:1019A000A1F361E070E080E090E00E944D07E11457
:1019B000F10471F74AC0632DCE0101960E94FB0B22
:1019C0008091E80085FF3EC09801E016F1060CF416
:1019D0009701E21AF30A552031F021503109F0F055
:1019E0001092F100FACF2C0D3D1D37FC03C0F6011B
:1019F00069010DC09C2D8D2D6901E92FF82FE2178B
:101A0000F30761F084918093F1003196F8CFE217EB
:101A1000F30721F081918093F100F9CF8091E800E4
:101A200085FD04C081E0E114F10409F080E0F401D7
:101A300080838091E80085FF0EC0E114F10411F469
:101A4000411009C089818FBFB2CF709884E680931E
:101A50008D10C50103C06092E800F4CF0F90DF91B4
:101A6000CF911F910F91FF90EF90DF90CF90BF909B
:101A7000AF909F908F907F906F905F904F903F902E
:101A800008951092E90010928110109280109093A6
:101A90007F1080937E100895DF92EF92FF920F9354
:101AA0001F93CF93DF93D82E8A017B01E40EF51E9E
:101AB000EB01CE15DF0571F0D7FE03C0FE01849166
:101AC00001C088810E944F0B21968111F2CF8FEFC8
:101AD0009FEF01C0C801DF91CF911F910F91FF903F
:101AE000EF90DF9008951F93CF93DF931F92CDB7B0
:101AF000DEB7162F2091E80022FFFCCF612F7983FB
:101B00000E940C0B8BEF8093E800812F7981972F37
:101B10000F90DF91CF911F9108951F920F920FB6F2
:101B20000F9211240BB60F92CF92DF92EF92FF9299
:101B30000F931F932F933F934F935F936F937F93D5
:101B40008F939F93AF93BF93EF93FF93CF93DF93C5
:101B5000CDB7DEB76C97DEBFCDBF1092E9008091A4
:101B6000E80083FF11C168E0CE0145960E940C0B8E
:101B700082EF8093E8008D8987FF05C09091E8008F
:101B800090FFFCCF03C09EEF9093E800982F9076D3
:101B900009F0DEC09E892F89188D91110CC0803804
:101BA00029F480918A108093F10002C01092F10014
:101BB0001092F100E2C0422F50E0512B913051F4CD
:101BC0008111DBC04130510509F0D7C080918A10E6
:101BD0008D7F0BC0933061F48111CFC0413051052E
:101BE00009F0CBC080918A10826080938A10C5C0B2
:101BF000953041F48091E80080FFFCCF206820936D
:101C0000E300BBC0963009F07EC0EB8CFC8C123038
:101C100069F580E090E00E94410D0E94E50B99E09B
:101C20009E012F5F3F4F6901F901292F11922A95DB
:101C3000E9F799831A8391E09E8390EA98879AEF57
:101C400099872091801030918110275F3F4F3C830E
:101C50002B838D83C7010E94410D49E050E0B601FE
:101C600080E00E944C0D0E94E50B87C0C7010E94D6
:101C7000410D0E942C10BE016B5E7F4F0E94D00F61
:101C8000009719F00CF079C07CC0113061F113306D
:101C900009F077C08F89882349F1823029F440E820
:101CA00068E087ED94E006C0813039F440E86BE0ED
:101CB0008BEC94E00E94840B5EC0833009F061C01D
:101CC0000E942C108E010F5F1F4FB8010E94EF0F72
:101CD000F80101900020E9F73197BF01601B710BFB
:101CE00040E0C801E7CF69EB74E002C060EE74E049
:101CF0006115710509F445C0FB01449150E080E88D
:101D00000E944C0D3AC09730E1F1983021F481E007
:101D10008093F10032C0993081F5837091F583E5AD
:101D2000E82E8FE0F82E11E0F70181917F018823E2
:101D300031F0812F0E94190B1F5F1730A9F78EE732
:101D40008093EA001092EA008F8980938B1015C06F
:101D50008B8D9C8D0E94410D898D811105C0CE0116
:101D600045960E94560907C00E942C10BE016B5E6A
:101D70007F4F0E940E10882321F08EEF8093E800A1
:101D800003C081E28093EB006C960FB6F894DEBF3F
:101D90000FBECDBFDF91CF91FF91EF91BF91AF917A
:101DA0009F918F917F916F915F914F913F912F9173
:101DB0001F910F91FF90EF90DF90CF900F900BBE8F
:101DC0000F900FBE0F901F9018958093E900E82F99
:101DD000F0E0EE57FF4E8081882321F09091E800DB
:101DE00095FFFCCF9091F200911104C0811102C0C7
:101DF000108208958AE38093E800FACF1F920F9231
:101E00000FB60F9211240BB60F922F933F934F935F
:101E10005F936F937F938F939F93AF93BF93CF9372
:101E2000EF93FF93C091E1008091E100837F809365
:101E3000E1008093E100C3FF08C080E00E94190B1D
:101E400010928B1088E08093F000C2FF1BC00E94AC
:101E5000FA0A83E00E94E50E80918D10882339F004
:101E600080918D10815080938D10882389F180910D
:101E70008C10882339F080918C10815080938C10C5
:101E8000882341F1C4FF10C08091E2008E7E816002
:101E90008093E2008091E1008F7E8093E100809149
:101EA00089108E7E806111C0C0FF16C08091E20053
:101EB0008E7E80618093E2008091E1008E7E80932F
:101EC000E100809189108E7E81608093891004C02A
:101ED000709ACDCF709AD6CFFF91EF91CF91BF91ED
:101EE000AF919F918F917F916F915F914F913F91B2
:101EF0002F910F900BBE0F900FBE0F901F90189553
:101F000010928B1010928A10109289100E94C10BAF
:101F1000E1EEF0E080818E7E80838DE08093E200B0
:101F2000689A089508950E9475070E94920F8DE7A0
:101F300090E10E94800F0E94B402C0E0D0E00E94B5
:101F40001D062097E1F30E940000F9CF0895EF925B
:101F5000FF920F931F93CF93DF937B01FC01C2810C
:101F6000D38100E010E0209781F0E881F9810280C0
:101F7000F381E02DB701CE01099597FD08C0080F48
:101F8000191F0D84DE85C02DEECFC80102C08FEF72
:101F90009FEFDF91CF911F910F91FF90EF900895E8
:101FA0000F931F93CF93DF938B01FC01C281D381E9
:101FB000209771F0E881F9810480F581E02DB80166
:101FC000CE010995009731F40D84DE85C02DF0CF48
:101FD00080E090E0DF91CF911F910F9108950F93D2
:101FE0001F93CF93DF938B01FC01C281D381209794
:101FF00071F0E881F9810680F781E02DB801CE010A
:102000000995080F111D0D84DE85C02DF0CFF80154
:102010001082DF91CF911F910F9108950F931F931D
:10202000CF93DF938B01FC01C281D381209771F0A4
:10203000E881F9810190F081E02DB801CE01099588
:10204000811105C00D84DE85C02DF0CF80E0DF91C9
:10205000CF911F910F9108958091921081110DC021
:1020600082E080938E1084E080938F101092911004
:102070001092901081E0809392108EE890E1089584
:1020800097FB072E16F4009407D077FD09D00E9425
:102090007F1007FC05D03EF4909581959F4F0895E1
:1020A000709561957F4F0895A1E21A2EAA1BBB1B64
:1020B000FD010DC0AA1FBB1FEE1FFF1FA217B30714
:1020C000E407F50720F0A21BB30BE40BF50B661F2A
:1020D000771F881F991F1A9469F7609570958095EE
:1020E00090959B01AC01BD01CF010895EE0FFF1F3C
:1020F0000024001C0BBE0790F691E02D0994AA1B4A
:10210000BB1B51E107C0AA1FBB1FA617B70710F0E2
:10211000A61BB70B881F991F5A95A9F78095909514
:0A212000BC01CD010895F894FFCF33
:10212A00C9FFFFFFFFFFFFFFFFFFFFFFFFFFFFFFEB
:10213A008040201008040201010204081020408097
:10214A00FFFFFFFFFFFFFFFFFFFFFFFFFFFFFFFF95
:10215A00FFFFFFFFFFFFFFFFFFFFFFFFFFFFFFFF85
:10216A00E521A9C0C36700FFE521B9C0C36700FF25
:10217A00E521C9C0C36700FFE521D9C0C36700FFD5
:10218A00E521E9C0C36700F5C5D52AB6280BE53AAB
:10219A006E67CD7E00E12318F1D1C1F1E1D9E9FFE3
:1021AA00FFFFFFFFFFFFFFFFFFFFFFFFFFFFFFFF35
:1021BA00FFFFFFFFFFFFFFFFFFFFFFFFFFFFFFFF25
:1021CA00FFFFFFFFFFFFFFFFFFFFFFFFFFFFFFFF15
:1021DA00FFFFFFFFFFFFFFFFFFFFFFFFFFFFFFFF05
:1021EA00FFFFFFFFFFFFFFFFFFFFFFFFFFFFFFFFF5
:1021FA00FFFFFFFFFFFFFFFFFFFFFFFFFFFFFFFFE5
:10220A00FFFFFFFFFFFFFFFFFFFFFFFFFFFFFFFFD4
:10221A00FFFFFFFFFFFFFFFFFFFFFFFFFFFFFFFFC4
:10222A0000C35001CEED6666CC0D000B037300832C
:10223A00000C000D0008111F8889000EDCCC6EE628
:10224A00DDDDD999BBBB67636E0EECCCDDDC999FF3
:10225A00BBB9333E4C4F474F00000000000000005E
:10226A0000000000000000000000000001B5BDB53C
:10227A00F357AF3100E021FFDF0E200600320520C0
:10228A00FC0D20F921FFFE0600320520FC21FFFF8C
:10229A000680320520FC7AEAA0C0CD050CAFE042E8
:1022AA00E043E041E04A3E07E04B0180FF211C0C7D
:1022BA00060A2AE20C0520FA01DD0BCD940B012651
:1022CA000CCDA60B3EE4E047E0483E1BE0493EC089
:1022DA00E040AFE00F3E09E0FFAFE026E0023E66D5
:1022EA00E0013E80E002AFCD2E0EFBCDF00C0002E5
:1022FA0001007618FDFFFFFFFFFFFFFFFFFFFFFF53
:10230A00C9FFFFFFFFFFFFFFFFFFFFFFFFFFFFFF09
:10231A00FFFFFFFFFFFFFFFFFFFFFFFFFFFFFFFFC3
:10232A00E8FD21C603E52100FFE5CD120DE8040111
:10233A004FFF3E0102215E02E5211412E521000051
:10234A00E5CDB00DE8060140FFF80136402336FF1F
:10235A002B5E23561A2B2B777FF601020140FF23AF
:10236A0036402336FF2B5E23561A2B2B777FF680B7
:10237A0002E803C9680114001200A00768010000FE
:10238A000000000000000000000000000000000043
:10239A000000000000010200000000000000000030
:1023AA00000304000000000000050607000000000A
:1023BA000000000008090A00000000000B0C0D0EC6
:1023CA000F0000000000001011121314000000009A
:1023DA00151617171819000000001A1B17171C1DCD
:1023EA00000000001E1F201717212223242526176C
:1023FA0017272829000000000000002A2B2C171795
:10240A0017172D2E2F00000000000000000000000A
:10241A0030171717171717310000000000000000C7
:10242A0000000000323334353637383900000000F6
:10243A0000000000000000003A3B3C3D3E3F4041A6
:10244A0000000000000000000000000042431744A2
:10245A004517464700000000000000000000004841
:10246A00494A174B4C174D4E4F0000000000000020
:10247A00505152175354171717175556175758597B
:10248A00000000005A5B17175C5D5E5F6061626363
:10249A001717646500000000666768696A00000033
:1024AA000000006B6C6D6E6F0000000000707172AE
:1024BA0000000000000000007374750000000000B6
:1024CA000076770000000000000000000078790024
:1024DA0000000000000000000000000000000000F2
:1024EA00000000000000FFFFFFFFFFFFFFFFFFFFEC
:1024FA00FFFFFFFFFFFFFFFFFFFFFFFFFFFFFFFFE2
:10250A00F9FEF8F0FCF8FFFFFFFFFFFFFFFFFFFFF8
:10251A00DF3F07030000FFFFFFFFFFFFFFFFFFFF93
:10252A00F3FCE0C00000FFFFFFFFFFFFFFFFFFFF1C
:10253A009F7F1F0F1F3FFCFEFFFFFFFFFFFFFFFFF5
:10254A00FFFFFFFFFFFF000000000080C0C0E0E0C7
:10255A00F0F0FCF8FCFC7F3F1F1F0F0F0707070373
:10256A00030301010101FEFCF8F8F0F0E0E0E0C02D
:10257A0080C08080808000000000010103030707FB
:10258A001F0F3F1F3F3F3F7FFFFFFFFFFFFFFFFF81
:10259A00FFFFFFFFFFFFFFFFFFFFFFFF7F7F1F3FE1
:1025AA000F1F0F070703FFFFFFFFFFFFFFFFFFFFDD
:1025BA00FFFFFEFFFEFEF8F8F0F0E0E0E0C0C080AA
:1025CA000080000000000100000000000000000080
:1025DA00000000000000FFFFFFFF7FFF7FFF7F7FFB
:1025EA007F7F7F7FFF7FFFFFFFFFFEFFFFFEFEFE75
:1025FA00FEFEFEFEFFFE800000000000000000005C
:10260A000000000000001F1F0F0F07070703030148
:10261A00000100000000FFFFFFFFFFFFFFFFFFFFB9
:10262A00FFFF7FFF7F7FFFFFFFFFFFFFFEFEF8FC3C
:10263A00F0F8F0E0E0C00101800080808080C08076
:10264A00C0C0E0C0E0E0FCFCF8F870702020000098
:10265A000000000000000000000000000000000070
:10266A00000000000000FF7F7F3F1F1F0F0F0707BA
:10267A00010300010000FFFFFFFFFFFFFFFFFFFF55
:10268A00FFFFFFFFFF7FFFFFFFFFFFFFFFFFFFFFD0
:10269A00FFFFFFFFFFFEFEFEFCFCF8F8E0F0C0E0E3
:1026AA0080C0800000003F3F1F1F0E0E0004000084
:1026BA000000000000008080010001010101030107
:1026CA00030303070707F0F0F8F8FCFCFFFEFFFF1F
:1026DA00FFFFFFFFFFFF0000000000000000C080B6
:1026EA00E8F0FFFFFFFF000000000000000000000C
:1026FA000C00FEFCFEFF7F3F1F1F0F0F07070F0F87
:10270A003E1E7C3CF078FFFFFCFEF8F0E0C0008043
:10271A00000000000000A0C000000000000000004F
:10272A000000000000000503000000000000000097
:10273A00000000000000FFFF3F7F1F0F070300019A
:10274A00000000000000FEFCF8F8F0F0E0E0F0F015
:10275A00FC783E3C1F1E0000000000000000000044
:10276A0030007F3F7FFF00000000000000000301EF
:10277A00170FFFFFFFFF0F0F1F1F3F3FFF7FFFFFD7
:10278A00FFFFFFFFFFFF0080C0C0E0E0F0F0FCF8B1
:10279A00FEFCFFFEFFFF000001010303070307071A
:1027AA00060F0E0E1C9CE0F0C0E0C0C08080000046
:1027BA00000000000000070F0707030301010000E3
:1027CA0000000000000000008080C0C0E0C0E0E01F
:1027DA0060F0707078390101030307070F0F3F1F7C
:1027EA007F3F7FFFFFFF9CDCF8F8F0F8F8F0F0F08D
:1027FA00E0F0E0E0E0E03F3B1F1F0F1F1F0F0F0F4D
:10280A00070F07070707E0E0C0E0E0C0C0C0C0C08C
:10281A00C0C080C080C000000000010307070F0F7E
:10282A000F1F1F1F3F3F000078FCFEFFFFFFFFFF47
:10283A00FFFFFFFFFFFF0000000000008080C0C014
:10284A00E0C0E0E0E0E00000000000000101030356
:10285A0003070707070700001E3F7FFFFFFFFFFF71
:10286A00FFFFFFFFFFFF0000000080C0E0E0F0F084
:10287A00F0F8F8F8FCFC0707030707030303030350
:10288A0003030103010380C080C080C080C080C0F0
:10289A0080C0C0C0C0C03F3F3F3F3F3F3F3F3F3F78
:1028AA003F3F3F3F1F1FFFFFFFFFFFFFFEFFFCFCF5
:1028BA00F0E080C08000C0E0C0C0C080000000001E
:1028CA0000000000000007070703030100000000E2
:1028DA00000000000000FFFFFFFFFFFF7FFF1F3F18
:1028EA000F0703010001FCFCFCFCFCFCFCFCFCFCEB
:1028FA00FCFCFCF8F8F801030103010301030103DE
:10290A00030303030303E0C0E0C0C0E0E0E0E0E04B
:10291A00F0E0F0F0F8F01F0F0F07060300000000C8
:10292A000000000000000000000001000101010396
:10293A000303030303070000000080008080C0C077
:10294A00C0C0E0C0C0E0F8F0E0E040C00000000015
:10295A000000000000000703030703070707070733
:10296A00070F0F0F1F0FFFFFFEFEF8FCF0F8F0E055
:10297A00E0C0C0800000303838383C1C1C1C0C0EEB
:10298A00070E070707030000000000000000000010
:10299A000000000000800707060706060604040474
:1029AA00000000000000C0E0E060606020600020DD
:1029BA00000000000000000000000000000000000D
:1029CA000000000001010C1C181C383838387070DF
:1029DA0060F0E0E0E0C0FFFF7F7F1F3F0F1F070F9F
:1029EA00070303010000FFFFFFFFFFFFFFFFFEFEDB
:1029FA00F8FCF0F8E0F0FFFFFCFFD0E080000000F8
:102A0A00000000000000FEFE1CFC000000000000A8
:102A1A0000000000000001030101000000000000A6
:102A2A0000000000000080C0E0C0F0E07870783C50
:102A3A003E1E1C3C7C7C03030307070F0E1E1E3C34
:102A4A007878783C3E3E80C080800000000000001C
:102A5A000000000000007F7F3B3C000000000000F7
:102A6A00000000000000FFFF9F7F0B07000100002D
:102A7A00000000000000FFFFFFFFFFFFFFFF7F7F56
:102A8A001F3F0F1F0F0FE0E0E0C0C0C080808080B2
:102A9A000080800101030000000000002000603077
:102AAA0070F8F8FCFCFE0000030107030F070F1F74
:102ABA001F3F7F7F7FFFF8FCFCFCFCFCFEFEFFFE55
:102ACA00FFFFFFFFFFFF0000000000000000000002
:102ADA000381E7FFFFFF400000404060E060E0F054
:102AEA00F0F8FEFFFFFF06000402020607060F0FBA
:102AFA001F1F7FFFFFFF0000000000000000000012
:102B0A00C081E7FFFFFF3F3F3F3F7F3F7F7FFF7F60
:102B1A00FFFFFFFFFFFF00008080E0C0F0E0F0F859
:102B2A00F8FCFEFEFFFE00000000000004000E0C90
:102B3A001F1E1F3F3F7F070707030303030101010E
:102B4A000101018081C007070F0F1F1F3F3F7FFF51
:102B5A00FFFFFFFFFFFFFFFEFFFFFFFFFFFFFFFF7C
:102B6A00FFFFFFFFFFFF000080008080C0C0E0E0A1
:102B7A00F0F0F8F8FCFC0000000000000000000083
:102B8A00000000000001FF7F7F7F7F7FFF7F7FFFC4
:102B9A00FFFFFFFFFFFFFEFEFEFEFEFEFEFEFFFE44
:102BAA00FEFFFFFFFFFF0000000000000000000022
:102BBA00000000008000000001000301070307076E
:102BCA000F0F1F1F3F3F7FFFFFFFFFFFFFFFFFFFAB
:102BDA00FFFFFFFFFFFFE0E0F0F0F8F8FCFCFEFF6C
:102BEA00FFFFFFFFFFFFFFFFFFFFFFFFFFFFFFFFEB
:102BFA00FFFFFEFEF8FCFCFCF0F8F0E0E0C080808D
:102C0A0000000000000001010101030303070F0790
:102C1A001F0F3F1F3F7F80808080C0C0C0E0E0E080
:102C2A00F8F0FCF8FCFE3F3F0F1F070F07030301F4
:102C3A00000000000000FFFFFFFFFFFFFFFFFFFF94
:102C4A00FFFF7F7F3F3FF8F8F0F0FEFFFFFFFFFF37
:102C5A00FFFFFFFFFFFF01000F073FFFFFFFFFFF1F
:102C6A00FFFFFFFFFFFF8000F0E0FCFFFFFFFFFF19
:102C7A00FFFFFFFFFFFF1F1F1F0F7FFFFFFFFFFF6A
:102C8A00FFFFFFFFFFFF7DEAA1C0E6036F01E0013E
:102C9A00CB25CB2509E921A9C0C3B20B21B9C0C3F1
:102CAA00B20B21C9C0C3B20B21D9C0C3B20B21E9EF
:102CBA00C0C3B20B21A9C0C3D20B21B9C0C3D20B66
:102CCA0021C9C0C3D20B21D9C0C3D20B21E9C0C3C9
:102CDA00D20B2A5F56B2C87BB920F77AB820F3AF75
:102CEA0032773C545D1B232A1247132A1213B0C8A9
:102CFA0018F52AB628032318F9702B71C921A7C021
:102D0A003420022334CD80FF3E01EAA5C0C9F04039
:102D1A0087D0AFF3EAA5C0FB7600FAA5C0B728F8BA
:102D2A00AFEAA5C0C9F04087D0F044FE9230FAF06D
:102D3A0044FE9138FAF040E67FE040C93EC0E046E2
:102D4A003E283D20FDC9FAA4C0FE022009F001EA8E
:102D5A00A3C03E00180EFE012016F001FE552804FD
:102D6A003E0418023E00EAA4C0AFE0023E66E0015B
:102D7A003E80E002C9F8026E2600CD660BC921A189
:102D8A00C05EC9FBC9F3C9FAA0C0C35001F3F80277
:102D9A00AFE00F7EE0FFFBC9C5F8044E2346CD76AF
:102DAA000BC1C9C5F8044E2346CD7C0BC1C9C5F871
:102DBA00044E2346CD820BC1C9C5F8044E2346CD25
:102DCA00880BC1C9C5F8044E2346CD8E0BC1C9C5AF
:102DDA00F8044E2346CD940BC1C9C5F8044E2346C8
:102DEA00CD9A0BC1C9C5F8044E2346CDA00BC1C963
:102DFA00C5F8044E2346CDA60BC1C9C5F8044E2317
:102E0A0046CDAC0BC1C921A7C0F32AFB565FC9C97D
:102E1A00E1FAA6C0F55E2356232A23E5EAA6C0EA0C
:102E2A00002021090DE56B62E9E1F1EA0020EAA63A
:102E3A00C0E9F040CB67C25F0DC5F807462B4E2BA1
:102E4A005E2B6EE5AFB32005110010180926006B42
:102E5A0029292929545DE17D079F6729292929C53F
:102E6A0001009009C1CB5C2806CB642802CBA4F0F0
:102E7A0041E60220FA0A22031B7AB320E8C1C9C537
:102E8A00F807462B4E2B5E2B6EE5AFB320051100DB
:102E9A0010180926006B29292929545DE1260029E1
:102EAA00292929C501008009C1CD8E0DC1C9F0416A
:102EBA00E60220FA0A22031B7AB320F2C9C5F809EE
:102ECA00562B5E2B462B4E2B3A6E67CD8E0DC1C903
:102EDA00C5F80456235EF809462B4E2B3A666FCD89
:102EEA00D50DC1C9E5F040CB77200521009818140B
:102EFA0021009C180FE5F040CB5F200521009818AF
:102F0A000321009CC5AFB32807012000091D20FC3E
:102F1A0006004A09C1D1E5D5F041E60220FA0A22A3
:102F2A00031520F4E154E11D280AC501200009C156
:102F3A00E5D518E4C9C5F80B462B4E2B562B5EF87F
:102F4A0004D556235E232A6E67CDE40DC1C9C9FF95
:102F5A00FFFFFF00E1000000000000FFFF01010287
:102F6A0002000000100010004000400000000000B5
:102F7A00000000C18081000000646461726B6F20F0
:102F8A0047426361727472696467650047616D657F
:102F9A00205469746C653A200043617274726964E2
:102FAA00676520547970653A2000202D2000524F21
:102FBA004D2053697A653A200052414D2053697A6F
:102FCA00653A2000524F4D5F535441525400524FBC
:102FDA004D5F454E440064656C6574696E672045B3
:102FEA004550524F4D0077726974696E67204545A6
:102FFA0050524F4D0020213D2000646F6E652077AE
:10300A00726974696E6720746F20454550524F4D3E
:10301A000000000000EE08350918092809040915FE
:10302A00090D0A006E616E00696E66006F766600B1
:02303A002E0066
:020000021000EC
:10F000004BC0000066C0000064C0000062C0000089
:10F0100060C000005EC000005CC000005AC000007C
:10F0200058C0000056C0000044C5000052C0000097
:10F0300050C000004EC000004CC000004AC000009C
:10F0400048C0000046C0000044C0000042C00000AC
:10F0500040C000003EC000003CC000003AC00000BC
:10F0600038C0000036C0000034C0000032C00000CC
:10F0700030C000002EC000002CC000002AC00000DC
:10F0800028C0000026C0000024C0000022C00000EC
:10F0900020C000001EC0000011241FBECFEFD0E230
:10F0A000DEBFCDBF11E0A0E0B1E0ECE8FEEF01E093
:10F0B0000BBF02C007900D92A83CB107D9F721E021
:10F0C000A8ECB1E001C01D92AB3DB207E1F751D011
:10F0D000DBC696CF84E08093E9008091E80085FD4F
:10F0E0000EC08091E8008B778093E8008091E80063
:10F0F00082FDF3CF8EB38111F9CF80E00895809126
:10F10000F100089593E09093E9009091E80095FF55
:10F1100003C08093F10008959091E8009E7790934A
:10F12000E8009091E80090FDF4CF9EB39111F9CFE3
:10F13000089584B78093DB0184B7877F84BF88E11B
:10F140000FB6F89480936000109260000FBE90E0BC
:10F1500080E80FB6F89480936100909361000FBE31
:10F160006A98729A8FEB9DE50197F1F700C0000055
:10F170000895CF93DF9300D000D000D0CDB7DEB795
:10F1800000918002109181021092810210928002FF
:10F19000D0DF2091DB01629909C023FF17C0809165
:10F1A0000001909101010817190781F023FF07C0A2
:10F1B00080910001909101010817190739F0E0E0F2
:10F1C000F0E085919491019609F0CCC281E085BF71
:10F1D00082E085BF7098689A709A50D478948FEFC7
:10F1E0008093D0011092CF0183E085BDF4E04F2ED3
:10F1F000A3E09A2EBB24B394B5E08B2E77247394AE
:10F2000013E0212E312C80910201882309F499C248
:10F210004092E9008091E80082FF58C21092C90133
:10F220001092C80157DF982F853439F088E8890F8C
:10F23000823010F0943519F44DDF8DE0D6C1903551
:10F24000E1F39C34D1F3943711F483E478C0913620
:10F2500011F489E5CAC1913491F43CDF182F3ADFEB
:10F2600090E0880F991F212F30E0322F2227330F93
:10F27000822B932BAA2797FDA095BA2FD4C1903744
:10F2800011F483E5B2C1933559F400EC11E0F801B3
:10F2900081918F0137DFF1E0073C1F07C1F7EFC114
:10F2A000963521F481E32EDF80E39FC1933731F45B
:10F2B00082E828DF87E926DF8EE197C1953601F5E0
:10F2C00080E090E0DC01FC01A0935B00909257008D
:10F2D000E89507B600FCFDCFFC01A0935B0080928F
:10F2E0005700E89507B600FCFDCF9F5FAF4FBF4FBB
:10F2F000811520EF920721E0A207B10521F79DCFEC
:10F30000923721F489E0E1E0F0E010C0963421F476
:10F31000E0E0F0E089E00AC09E3419F489E0F101F0
:10F3200005C0913539F489E0E2E0F0E080935700C0
:10F3300084915BC1923631F489E5E4DE81E0E2DE5E
:10F3400080E053C1923419F0973609F0EFC09983E9
:10F35000C1DE282F30E0322F22272A833B83BADEFA
:10F360002A813B81282B2A833B83B4DE182F8BEB29
:10F37000810F2A813B819981823010F08FE335C162
:10F38000973609F04FC081E180935700E895612CD2
:10F390002115310509F473C1C090CB01D090CC0187
:10F3A000E090CD01F090CE01D701C6011634D1F422
:10F3B0008629ABBFFC0187912A833B83A3DE2A8188
:10F3C0003B81662069F0F2E0CF0ED11CE11CF11CFC
:10F3D000C092CB01D092CC01E092CD01F092CE014F
:10F3E0006B241DC0B695A795979587952A833B8377
:10F3F00035D588DE8091CB019091CC01A091CD01D3
:10F40000B091CE010296A11DB11D8093CB019093C6
:10F41000CC01A093CD01B093CE013B812A81215034
:10F420003109B6CFC090CB01D090CC01E090CD0196
:10F43000F090CE01163459F4F601E0925B00909200
:10F440005700E89507B600FCFDCF7092CA013E83D5
:10F450002D83512C612CED81FE81EF2B09F459C0D5
:10F46000163479F5662049F14091CB015091CC01D9
:10F470006091CD017091CE0149835A836B837C8367
:10F4800029DE252D30E0382B49815A816B817C8122
:10F490000901FA0160935B00B0925700E8951124CE
:10F4A0004E5F5F4F6F4F7F4F4093CB015093CC0126
:10F4B0006093CD017093CE0102C00CDE582E6B24F8
:10F4C00022C008DE682F8091CB019091CC01A091E1
:10F4D000CD01B091CE01B695A79597958795C6D4E5
:10F4E0008091CB019091CC01A091CD01B091CE0142
:10F4F0000296A11DB11D8093CB019093CC01A093E6
:10F50000CD01B093CE018D819E8101979E838D8325
:10F51000A2CF163409F091CEF601E0925B00809202
:10F520005700E89507B600FCFDCF87CE933499F4D9
:10F53000C090CB01D090CC01E090CD01F090CE01F5
:10F54000C9DD90E00C01F601E0925B00B09257003B
:10F55000E895112472CE933619F5C090CB01D09066
:10F56000CC01E090CD01F090CE01B4DDB701A60151
:10F57000416090E00C01FA0160935B00B09257008B
:10F58000E8951124F2E0CF0ED11CE11CF11CC092D1
:10F59000CB01D092CC01E092CD01F092CE014DCEC4
:10F5A0009D3691F48091CB019091CC01A091CD0139
:10F5B000B091CE01FC01A0935B0080925700E895CA
:10F5C00007B600FCFDCF39CE923589F48091CB018E
:10F5D0009091CC01A091CD01B091CE01ABBFFC01C7
:10F5E00007911691812F8EDD802F8CDD48C09434D9
:10F5F00019F570DD682F8091CB019091CC01A0911D
:10F60000CD01B091CE01B695A795979587952ED44B
:10F610008091CB019091CC01A091CD01B091CE0110
:10F620000296A11DB11D8093CB019093CC01A093B4
:10F63000CD01B093CE0101CE9436F1F4C090CB0150
:10F64000D090CC01E090CD01F090CE01D701C60161
:10F65000B695A7959795879501D454DD22E0C20E03
:10F66000D11CE11CF11CC092CB01D092CC01E092E4
:10F67000CD01F092CE0103C09B3109F07FCE909274
:10F68000E9009091E8008091E8008E778093E8008F
:10F6900095FD11C08091E80080FD04C08EB38111FA
:10F6A000F9CF14C08091E8008E778093E80003C002
:10F6B0008EB3882359F08091E80080FFF9CF409203
:10F6C000E9008091E8008B778093E800ACD38091CB
:10F6D000C8019091C901893E914010F01092020139
:10F6E000AA9B26C0AA9A9091CF018091D00199231C
:10F6F00041F08F3F21F41092CF018EEF0AC08F5F4F
:10F7000008C0811105C07092CF017092D00103C072
:10F7100081508093D0018091CA01882349F0809163
:10F72000C8019091C90101969093C9018093C801C5
:10F7300096B58091D001981710F4709A64CD7098A6
:10F7400062CD8091E00081608093E0002DE088E14F
:10F7500090E00FB6F894A895809360000FBE2093B8
:10F760006000FFCF7098689A709AE0E0F0E0099529
:10F7700042E061EC82E00FD142E161E883E00BD12D
:10F7800042E160E884E007C18091D301982F9F7720
:10F79000913299F59091D401913229F0923229F168
:10F7A000903259F510C0813A41F58091E800877F89
:10F7B0008093E80067E070E083E091E059D08091A9
:10F7C000E8008B770FC08132C1F48091E800877F19
:10F7D0008093E80067E070E083E091E0A0D0809142
:10F7E000E8008E778093E8000895813231F48091AB
:10F7F000E800877F8093E800E2C00895292F30E079
:10F800002230310539F02330310549F021303105FE
:10F8100071F412C08EE390E020E731E025C0882328
:10F8200081F0813099F08230B1F08330C9F080E00E
:10F8300090E020E030E018C082E190E02EEA31E074
:10F8400013C084E090E02CE631E00EC080E290E04E
:10F850002AE431E009C08EE290E02AE131E004C000
:10F860008EE090E02AE031E0FA01318320830895B0
:10F870002091D9013091DA012617370748F0611538
:10F88000710539F42091E8002E772093E80001C03B
:10F89000B901FC0120E06115710591F18EB3882357
:10F8A000D1F18530D1F18091E80083FD32C08091A3
:10F8B000E80082FF06C08091E80082FF24C080E05B
:10F8C00008958091E80080FFE6CF8091F20090914A
:10F8D000F3006115710551F08830910538F42191DC
:10F8E0002093F100615071090196F3CF21E0089750
:10F8F00009F020E08091E8008E778093E800CBCF7C
:10F900002111CCCFD8CF8EB3882329F0853099F63A
:10F9100004C081E0089582E0089583E008956115B0
:10F92000710529F42091E8002B772093E8006115F8
:10F93000710521F12EB3222351F1253051F120918F
:10F94000E80023FD20C02091E80022FFF3CFFC0156
:10F95000CF012091F2003091F300232B19F3809115
:10F96000F1008193CF01615071096115710581F733
:10F97000D9CF8EB3882359F0853059F08091E800B3
:10F9800080FFF7CF02C081E0089580E0089582E013
:10F99000089583E008958F708093E900EBEEF0E026
:10F9A000808181608083EDEEF0E010826093EC0056
:10F9B00040838091EE00881F8827881F08958091DA
:10F9C000D30187FD05C08091E80080FF0DC010C005
:10F9D0008091E80082FD04C08EB38111F9CF0895B3
:10F9E0008091E8008B7707C08EB38111ECCF08952A
:10F9F0008091E8008E778093E80008950F931F931D
:10FA0000CF93DF9349D050D0C8EDD0E088818F7775
:10FA1000888388818068888388818F7D8883E7EDEB
:10FA2000F0E080818068808319BC1EBA1092D101F9
:10FA300000EE10E0F80180818B7F808388818160F7
:10FA4000888342E060E080E0A6DFE1EEF0E08081C4
:10FA50008E7F8083E2EEF0E0808181608083808110
:10FA600088608083F80180818E7F808388818061B7
:10FA70008883DF91CF911F910F910895E8EDF0E019
:10FA800080818F7E8083E7EDF0E0808181608083DC
:10FA900081E08093D201B2CFE8EDF0E080818C7FED
:10FAA00080831092E20008951092DA001092E10033
:10FAB00008951F920F920FB60F9211240BB60F925A
:10FAC0002F933F934F935F936F937F938F939F9366
:10FAD000AF93BF93EF93FF938091DA0080FF1BC039
:10FAE0008091D80080FF17C08091DA008E7F8093CC
:10FAF000DA008091D90080FF0BC084E189BD86E1E6
:10FB000089BD09B400FEFDCF81E08EBB8BD103C05F
:10FB100019BC1EBA87D18091E10080FF17C0809187
:10FB2000E20080FF13C08091E2008E7F8093E200AC
:10FB30008091E20080618093E2008091D800806231
:10FB40008093D80019BC85E08EBB6CD18091E10018
:10FB500084FF2EC08091E20084FF2AC084E189BD29
:10FB600086E189BD09B400FEFDCF8091D8008F7D6C
:10FB70008093D8008091E1008F7E8093E100809196
:10FB8000E2008F7E8093E2008091E20081608093AA
:10FB9000E2008091D101882311F084E007C08091B8
:10FBA000E30087FF02C083E001C081E08EBB3AD151
:10FBB0008091E10083FF21C08091E20083FF1DC09E
:10FBC0008091E100877F8093E10082E08EBB1092FC
:10FBD000D1018091E1008E7F8093E1008091E2006D
:10FBE0008E7F8093E2008091E20080618093E2004A
:10FBF00042E060E080E0CFDE15D1FF91EF91BF9150
:10FC0000AF919F918F917F916F915F914F913F91B4
:10FC10002F910F900BBE0F900FBE0F901F90189555
:10FC20001F93CF93DF9300D0CDB7DEB7E3EDF1E0C4
:10FC30008091F100819381E0EB3DF807C9F7A4DDE5
:10FC40008091E80083FFDAC09091D3018091D401C4
:10FC5000853009F465C030F4813059F168F08330A3
:10FC600041F1CCC0883009F49CC0893009F4ABC0A4
:10FC7000863009F0C3C075C0903881F0923809F021
:10FC8000BDC08091D7018F708093E9009091EB0007
:10FC900095FB992790F91092E90001C090E08091BE
:10FCA000E800877F8093E8009093F1001092F100C4
:10FCB00083C0292F2D7F09F0A1C0923009F09EC08A
:10FCC0009091D501911126C02091D7012F7009F490
:10FCD00095C02093E9009091EB0090FF1BC083300A
:10FCE00021F48091EB00806213C08091EB00806171
:10FCF0008093EB0081E090E0022E01C0880F0A940F
:10FD0000EAF78093EA001092EA008091EB008860A5
:10FD10008093EB001092E9008091E800877F4FC04C
:10FD200091116CC01091D5011F778091E30080780C
:10FD3000812B8093E3008091E800877F8093E80027
:10FD40003EDE8091E80080FFFCCF8091E300806878
:10FD50008093E300112311F083E001C082E08EBBA9
:10FD60004DC09058923008F049C0AE014F5F5F4FD0
:10FD70006091D7018091D5019091D6013FDD009728
:10FD800009F43CC02091E800277F2093E800BC01E3
:10FD900089819A816DDD8091E8008B778093E800FE
:10FDA0002DC0903859F58091E800877F8093E80056
:10FDB0008091D1018093F1008091E8008E7780934B
:10FDC000E800FDDD1BC0911119C09091D501923062
:10FDD000A8F48091E800877F8093E8009093D10198
:10FDE000EEDD8091D101811104C08091E30087FF95
:10FDF00002C084E001C081E08EBBBADC8091E800E3
:10FE000083FF0AC08091E800877F8093E80080919B
:10FE1000EB0080628093EB000F900F90DF91CF9109
:10FE20001F9108950895CF938EB38823A9F08091F0
:10FE3000E9008F709091EC0090FF02C090E801C043
:10FE400090E0C92FC82B1092E9008091E80083FD53
:10FE5000E7DECF70C093E900CF910895F999FECF06
:10FE600092BD81BDF89A992780B50895262FF999FA
:10FE7000FECF1FBA92BD81BD20BD0FB6F894FA9A8D
:0CFE8000F99A0FBE01960895F894FFCF88
:10FE8C00777701000000000000080E0330003000FE
:10FE9C00340035003800360000002E034D006100A0
:10FEAC007400740061006900720054006500630006
:10FEBC00680020004300440043002000530065000C
:10FECC007200690061006C00000020034D006100AD
:10FEDC0074007400610069007200540065006300D6
:10FEEC00680020004C004C0043000000040309048F
:10FEFC0009023E00020100803209040000010202E6
:10FF0C00010005240010010424020205240600014E
:10FF1C00070582030800FF09040100020A00000023
:10FF2C0007050402100005070583021000051201E5
:10FF3C00100102000008D016570500010102030150
:08FF4C004D542D4344432000F5
:040000031000F000F9
:00000001FF
